:0400000084EF01F098
:08000800046ED8CF05F0E0CF33
:1000100006F00001E9CF0CF0EACF07F0E1CF08F0DD
:10002000E2CF09F0D9CF0AF0DACF0BF0F3CF12F01C
:10003000F4CF13F0FACF14F000C00EF001C00FF0AF
:1000400002C010F003C011F0F2A82AEF00F0F2B2E3
:100050006CEF00F00EC000F00FC001F010C002F015
:1000600011C003F00CC0E9FF07C0EAFF078E08C00B
:10007000E1FF09C0E2FF0AC0D9FF0BC0DAFF12C0DE
:10008000F3FF13C0F4FF14C0FAFF045006C0E0FFF2
:1000900005C0D8FF100007AE03D0F2CF0DF0F29EDE
:1000A000F76AB80FF66E000EF7220900F55007AE9A
:1000B00002D00DBEF28E120000010200CA94036A43
:1000C0001750F2CF27F0F29EE6DF27BEF28E04092A
:1000D000CA6ECC6A9E9212008A74172A17500208C0
:1000E00001E2176AEBDFF2922AEF00F092800E0E27
:1000F000C16EAE0EC06E010EC26E520E006E002EAC
:10010000FED700D000008FEF01F0216ACBCF20F0A6
:10011000010E2026000E21222036213620362136DF
:10012000FC0E2016010E205C1E6E000E21581F6E64
:100130001F501D5C08E303E11C501E5C04E21FC05D
:100140001DF01EC01CF01D30036E1C30026E033209
:10015000023202C0BEFFBD50CF0B206E1C50030BFD
:10016000216E226A2134026E2234036E0236033677
:100170000236033602360336F00E02160250201005
:10018000BD6E1200630ECB6E8C0EBD6E1B6ACBCFA4
:100190001AF0010E1A26000E1B221A361B361A36CA
:1001A0001B36FC0E1A16D8901B321A321BC01DF0DB
:1001B0001AC01CF0AADF94EF01F09380F292F2884B
:1001C000F18CF28E9DEF01F01B6A1A6A1C6A1C50BA
:1001D000030818E3C250C30BC26E310E006E002E2E
:1001E000FED700D0C282C2A201D0FDD7C4CF1DF07D
:1001F0001D6A1D50C310006E00501A26C4501B22E9
:100200001C2AE5D71B30036E1A30026E033202320D
:100210003F0E031602C001F003C002F09EEF01F092
:1002200020502202F3CF01F0F4CF00F02302F3506C
:10023000002621502202F3500020026E5EEF01F0F2
:10024000016A026A006A036A255002E1245018E03C
:10025000100E266ED89022362336003603362550EF
:10026000035C02E12450005C07E32450005ED8A048
:1002700003062550035ED88001360236262EEAD7C3
:100280006AEF01F0216ACBCF20F0010E2026000E8C
:1002900021222036213620362136FC0E2016010E72
:1002A000205C1E6E000E21581F6E1DC021F01CC068
:1002B00020F01FC023F01EC022F0B2D702C021F0F0
:1002C00001C020F002C023F001C022F0030E256E11
:1002D0002468B6D702C003F002C002F0A7EF01F015
:1002E000EA6A1A0EE96EEF500DE0060E016E006A22
:1002F000002EFED7012EFBD77B0E006E002EFED700
:10030000EF2EF3D7B3EF01F0F86AD09E078E176A8D
:10031000C150C00B0F09C16E070EB46EE7D694949E
:100320009394959A8A942ED7176A166AF2BE168EFF
:10033000F29EC4DE16BEF28E40D746D702C01BF036
:1003400001C01AF002C01DF001C01CF09BD702C012
:1003500019F001C018F019C01DF018C01CF0D5DE4E
:0A0360000A0E1A6EBDD7E9D703009C
:020000040030CA
:0E00000027CC3E1E0007A1000FC00FE00F40EE
:00000001FF
;PIC18F4550
;CRC=605E  CREATED="17-may.-26 13:02"
