:04000000FBEF00F022
:08000800046ED8CF05F0E0CF33
:1000100006F00001E9CF0CF0EACF07F0E1CF08F0DD
:10002000E2CF09F0D9CF0AF0DACF0BF0F3CF12F01C
:10003000F4CF13F0FACF14F0F5CF15F0F6CF16F099
:10004000F7CF17F000C00EF001C00FF002C010F0A3
:1000500003C011F0F2A830EF00F0F2B26AEF00F046
:100060000EC000F00FC001F010C002F011C003F08C
:100070000CC0E9FF07C0EAFF078E08C0E1FF09C016
:10008000E2FF0AC0D9FF0BC0DAFF12C0F3FF13C0B2
:10009000F4FF14C0FAFF15C0F5FF16C0F6FF17C035
:1000A000F7FF045006C0E0FF05C0D8FF1000F76A54
:1000B000BE0FF66E000EF7220900F5501200000187
:1000C0000200CA94036A1A50F2DF0409CA6ECC6AAD
:1000D0009E9212008A741A2A1A50020801E21A6AC1
:1000E000F0DFF29230EF00F092800E0EC16E910EB2
:1000F000C06E010EC26E520E006E002EFED700D0F2
:10010000000006EF01F02050030803E2030E206E0A
:100110001F682030036E1F30026E0332023202C0AD
:10012000BEFFBD50CF0B216E1F50030B226E236A02
:100130002234026E2334036E02360336023603364F
:1001400002360336F00E021602502110BD6E120068
:10015000630ECB6E8E0EBD6E0A0EB76E1E6ACBCFCF
:100160001DF0010E1D26000E1E221D361E361D36E8
:100170001E36FC0E1D16D8901E321D321EC020F0F9
:100180001DC01FF0C0DF0BEF01F09380F292F288E8
:10019000F18CF28E14EF01F0C250C30BC26E200E30
:1001A000006E002EFED700D00000C282C2A201D095
:1001B000FDD7C4CF1FF01F6A1F50C3101D6EC4CFE0
:1001C0001EF01DC001F01EC002F015EF01F0EA6A3A
:1001D0001D0EE96EEF500DE0060E016E006A002E56
:1001E000FED7012EFBD77B0E006E002EFED7EF2E22
:1001F000F3D750EF01F0F86AD09E078E1A6AC1500B
:10020000C00B0F09C16E070EB46E6ED79494939411
:10021000959A8A949DD71A6A196AF2BE198EF29E2F
:1002200050DF19BEF28EB1D7B7D702C01CF001C0A3
:100230001BF01E6ACBCF1DF0010E1D26000E1E22E4
:100240001D361E361D361E36FC0E1D16010E1D5C9B
:10025000006E000E1E58036E00C001F003501C5CBF
:1002600017E303E11B50015C13E21E6ACBCF1DF0C4
:10027000010E1D26000E1E221D361E361D361E3690
:10028000FC0E1D16010E1D5C1B6E000E1E581C6E12
:100290001CC020F01BC01FF036DF0A0E1D6E97D762
:0402A000C3D70300BD
:020000040030CA
:0E00000020CC3E1E0007A1000FC00FE00F40F5
:00000001FF
;PIC18F4550
;CRC=0F4B  CREATED="17-may.-26 19:29"
