:0400000008EF01F014
:08000800046ED8CF05F0E0CF33
:1000100006F00001E9CF0CF0EACF07F0E1CF08F0DD
:10002000E2CF09F0D9CF0AF0DACF0BF0F3CF12F01C
:10003000F4CF13F0FACF14F000C00EF001C00FF0AF
:1000400002C010F003C011F0F2A82AEF00F0F2B2E3
:100050006CEF00F00EC000F00FC001F010C002F015
:1000600011C003F00CC0E9FF07C0EAFF078E08C00B
:10007000E1FF09C0E2FF0AC0D9FF0BC0DAFF12C0DE
:10008000F3FF13C0F4FF14C0FAFF045006C0E0FFF2
:1000900005C0D8FF100007AE03D0F2CF0DF0F29EDE
:1000A000F76AB80FF66E000EF7220900F55007AE9A
:1000B00002D00DBEF28E120000010200CA94036A43
:1000C0001750F2CF23F0F29EE6DF23BEF28E040932
:1000D000CA6ECC6A9E9212008A74172A17500208C0
:1000E00001E2176AEBDFF2922AEF00F092800E0E27
:1000F000C16E910EC06E010EC26E030E006E002E18
:10010000FED700D018EF01F0216ACBCF20F0010E0E
:100110002026000E21222036213620362136FC0EE4
:100120002016010E205C1E6E000E21581F6E1F50FF
:100130001D5C08E303E11C501E5C04E21FC01DF0BF
:100140001EC01CF01D30036E1C30026E03320232E2
:1001500002C0BEFFBD50CF0B206E1C50030B216EA2
:10016000226A2134026E2234036E023603360236CE
:10017000033602360336F00E021602502010BD6E12
:100180001200040ECB6E8C0EBD6E1B6ACBCF1AF024
:10019000010E1A26000E1B221A361B361A361B3683
:1001A000FC0E1A16D8901B321A321BC01DF01AC052
:1001B0001CF0AADF1DEF01F09380F292F288F18C1F
:1001C000F28E26EF01F0C250C30BC26E00D000D0F9
:1001D0000000C282C2A201D0FDD7C4CF1CF01C6AAD
:1001E0001C50C3101A6EC4CF1BF01AC001F01BC004
:1001F00002F027EF01F0EA6A1A0EE96EEF5006E00E
:10020000520E006E002EFED7EF2EFAD762EF01F0ED
:10021000F86AD09E078E400ED36ED350176AC15035
:10022000C00B0F09C16E070EB46E420ED36E5ED7BF
:1002300094949394959A8A94A4D7176A166AF2BEF6
:10024000168EF29E3BDF16BEF28EB6D7BCD702C02A
:1002500019F001C018F01B6ACBCF1AF0010E1A2654
:10026000000E1B221A361B361A361B36FC0E1A16C7
:10027000010E1A5C006E000E1B58036E00C001F0E8
:100280000350195C17E303E11850015C13E21B6A89
:10029000CBCF1AF0010E1A26000E1B221A361B367F
:1002A0001A361B36FC0E1A16010E1A5C186E000E5A
:1002B0001B58196E19C01DF018C01CF025DF0A0E5E
:0802C0001A6E99D7C3D70300A1
:020000040030CA
:0E00000020C93E1E0007A1000FC00FE00F40F8
:00000001FF
;PIC18F4550
;CRC=28E7  CREATED="14-may.-26 22:37"
